:060000008031952900008B
:0800080083018A012000770842
:10001000A0007808A1007908A2007A08A3008B1E2E
:1000200013280B191C282008F7002108F8002208C3
:10003000F9002308FA00090080311E282908FA0077
:100040002808A80A0319A90AAF007A08B0002F08E7
:10005000FA3C031D3128B008031D3128A901A8016D
:10006000251407080B110B11803113285429D306CE
:100070000000D22241225910A10600014122431D55
:100080002526D8060000203022008C0021008C019B
:1000900022008E01223021008E0022009D0192015B
:1000A000910194019301F030210099001508C039A5
:1000B000043895000030F8002800970000309600C2
:1000C000F8009E0000309D00803120004A2A203038
:1000D00085000A308400000803197B280A30F800E4
:1000E000F701F70B7128F80B70285F30F700F70B5A
:1000F0007728800B6E288031512A0B08AA008B13B9
:100100002300951715140000000013087F39031908
:10011000C4282000AB00230011082000AC002300FD
:1001200012082000AD002B08111E942823009A000D
:1001300020002C082300910020002D0823009200AD
:100140009517151400000000130D140D7F390319C5
:10015000C4282000AB00230011082000AC002300BD
:1001600012082000AD002B08111EB42823009A00AD
:1001700020002C082300910020002D08230092006D
:10018000910A0319920A81282000AA1B8B170800E4
:1001900022008C162000A701A60122000E10D028F4
:1001A000D1280E11D328D4282000AA012A08073C00
:1001B000031CEA2822000E14DD28DE2820008E18F9
:1001C000E328EA28E62822000E102000E728E82885
:1001D000AA0AD62822000E10ED28EE282000AA0137
:1001E0002A080F3C031C0E2922000E140230F700CF
:1001F000F70BF8280000003020008E180130A6040C
:1002000022000E1020002A080F3C03190A290310AF
:10021000A60DA70D0B290C29AA0AF02822000E1002
:100220000230F700F70B122900000E158C128031F6
:100230002000662A0B08AB008B13230095171514BA
:10024000000000000318492913087F392000AC0082
:10025000230011082000AD00230012082000AE008A
:100260002C08111E312923009A0020002D0823009C
:10027000910020002E08230092009517151400000D
:1002800000002000AA0B45294729230049296A2993
:100290002300130D140D7F392000AC00230011083A
:1002A0002000AD00230012082000AE002C08111E13
:1002B000572923009A0020002D08230091002000D8
:1002C0002E0823009200910A0319920A03102000BD
:1002D000AA0B1D29AB1B8B178031702AAB1B8329FE
:1002E0000F30F7002A0EF7050A30770203187B2932
:1002F0003030F7077D292B08F7077708111E7E2974
:1003000023009A0020000F30AA050A302A020318A1
:100310008B2930308D29AB132B08AA072A08111E10
:100320008F2923009A00200008005730F700203062
:100330008400003085008001840AF70B9B29F801B6
:10034000F901FA01FB01FC01FD01FE015030F7004B
:10035000A0308400003085008001840AF70BAC29AE
:100360005030F70020308400013085008001840A7D
:10037000F70BB62985015030F700A030840001301A
:1003800085008001840AF70BC12985015030F700F0
:1003900020308400023085008001840AF70BCC29CC
:1003A00085015030F700A0308400023085008001C4
:1003B000840AF70BD72985015030F70020308400DC
:1003C000033085008001840AF70BE2298501503053
:1003D000F700A0308400033085008001840AF70B09
:1003E000ED2985015030F70020308400043085006D
:1003F0008001840AF70BF82985015030F700A030FE
:100400008400043085008001840AF70B032A8501EB
:100410005030F70020308400053085008001840AC8
:10042000F70B0E2A85015030F700A030840005300C
:1004300085008001840AF70B192A85013030F70006
:1004400020308400063085008001840AF70B242ABE
:100450008501A001850184011F308305F030210052
:1004600099002000A401333023009B00A2309E009D
:1004700090309D0020002510A701A601A901A80128
:1004800023008C018E0122009201910194019301BD
:100490002000432822008E150E15FA302000AA00F5
:1004A00067288B16C0308B04363023009100003053
:1004B000920020007D20393023009100003092000E
:1004C00020007D20251C802A2510C8283E302300CE
:1004D000910000309200031004302000AA001A2975
:1004E0002708AA003730AB006E212608AA00373053
:1004F000AB006E210D30111E7B2A23009A002000D4
:04050000622A630008
:020000040001F9
:04000E00CC29FF1CDE
:00000001FF
;PIC16F1825
;CRC=16C1  CREATED="07-août-15 12:16"
