:060000008031942900008C
:0800080083018A012000770842
:10001000A0007808A1007908A2007A08A3008B1E2E
:1000200013280B191C282008F7002108F8002208C3
:10003000F9002308FA00090080311E282908FA0077
:100040002808A80A0319A90AAF007A08B0002F08E7
:10005000FA3C031D3128B008031D3128A901A8016D
:10006000251407080B110B11803113285429D306CE
:100070000000D22241225910A10600014122431D55
:100080002526D8060000203022008C0021008C019B
:1000900022008E01223021008E0022009D0192015B
:1000A000910194019301F030210099001508C039A5
:1000B000043895000030F8002800970000309600C2
:1000C000F8009E0000309D0080312000492A203039
:1000D00085000B308400000803197B280A30F800E3
:1000E000F701F70B7128F80B70285F30F700F70B5A
:1000F0007728800B6E2808000B08AA008B132300BA
:10010000951715140000000013087F390319C32840
:100110002000AB00230011082000AC0023001208CF
:100120002000AD002B08111E932823009A00200008
:100130002C082300910020002D0823009200951721
:10014000151400000000130D140D7F390319C32886
:100150002000AB00230011082000AC00230012088F
:100160002000AD002B08111EB32823009A002000A8
:100170002C082300910020002D0823009200910AF2
:100180000319920A80282000AA1B8B17080022005E
:100190008C162000A701A60122000E10CF28D0281F
:1001A0000E11D228D3282000AA012A08073C031CDC
:1001B000E92822000E14DC28DD2820008E18E22811
:1001C000E928E52822000E102000E628E728AA0AE0
:1001D000D52822000E10EC28ED282000AA012A08BC
:1001E0000F3C031C0D2922000E140230F700F70B00
:1001F000F7280000003020008E180130A6042200ED
:100200000E1020002A080F3C031909290310A60D1F
:10021000A70D0A290B29AA0AEF2822000E10023086
:10022000F700F70B112900000E158C128031200009
:100230006F2A0B08AB008B132300951715140000D1
:1002400000000318482913087F392000AC00230060
:1002500011082000AD00230012082000AE002C0879
:10026000111E302923009A0020002D082300910040
:1002700020002E082300920095171514000000009E
:100280002000AA0B44294629230048296929230074
:10029000130D140D7F392000AC002300110820003D
:1002A000AD00230012082000AE002C08111E5629B4
:1002B00023009A0020002D082300910020002E0822
:1002C00023009200910A0319920A03102000AA0B3E
:1002D0001C29AB1B8B178031792AAB1B82290F306D
:1002E000F7002A0EF7050A30770203187A29303012
:1002F000F7077C292B08F7077708111E7D292300B3
:100300009A0020000F30AA050A302A0203188A2911
:1003100030308C29AB132B08AA072A08111E8E290E
:1003200023009A00200008005730F7002030840096
:10033000003085008001840AF70B9A29F801F90141
:10034000FA01FB01FC01FD01FE015030F700A03075
:100350008400003085008001840AF70BAB295030FF
:10036000F70020308400013085008001840AF70BFB
:10037000B52985015030F700A03084000130850098
:100380008001840AF70BC02985015030F700203026
:100390008400023085008001840AF70BCB29850197
:1003A0005030F700A0308400023085008001840ABC
:1003B000F70BD62985015030F70020308400033038
:1003C00085008001840AF70BE12985015030F70090
:1003D000A0308400033085008001840AF70BEC29EB
:1003E00085015030F7002030840004308500800102
:1003F000840AF70BF72985015030F700A0308400FC
:10040000043085008001840AF70B022A85015030F0
:10041000F70020308400053085008001840AF70B46
:100420000D2A85015030F700A0308400053085008A
:100430008001840AF70B182A85013030F70020303C
:100440008400063085008001840AF70B232A850189
:10045000A001850184011F308305F030210099003F
:100460002000A401333023009B00A2309E00903076
:100470009D0020002510A701A601A901A8012300C5
:100480008C018E01220092019101940193012000C0
:10049000432822008E150E1502302000AA00FA30E3
:1004A000AB006720AA0B4F2A3630230091000030A2
:1004B000920020007C20FA30AB0067203930230006
:1004C00091000030920020007C20FA30AB006720C1
:1004D0008B16C0308B04251C892A2510C7283E3076
:1004E0002300910000309200031004302000AA0085
:1004F00019292708AA003730AB006D212608AA0069
:100500003730AB006D210D30111E842A23009A0074
:0605100020006B2A6300CD
:020000040001F9
:04000E00CC29FF1CDE
:00000001FF
;PIC16F1825
;CRC=8F08  CREATED="10-août-15 15:20"
